:020000040800F2
:1000000070040020A10100083F100008D70F00086D
:100010003D100008A3050008B1140008000000000E
:100020000000000000000000000000009512000821
:10003000A505000800000000BD1000089712000888
:10004000BB010008BB010008BB010008BB010008A0
:10005000BB010008BB010008BB010008BB01000890
:10006000BB010008BB010008BB010008BB01000880
:10007000BB010008BB010008BB010008BB01000870
:10008000BB010008BB010008BB010008BB01000860
:10009000BB010008BB010008BB010008BB01000850
:1000A000BB010008BB010008BB010008BB01000840
:1000B000BB010008BB010008BB010008BB01000830
:1000C000BB010008BB010008BB010008BB01000820
:1000D000BB010008BB010008BB010008BB01000810
:1000E000BB010008BB010008BB010008BB01000800
:1000F000BB010008BB010008BB010008BB010008F0
:10010000BB010008BB010008BB010008BB010008DF
:10011000BB010008BB010008BB010008BB010008CF
:10012000BB010008BB010008BB010008BB010008BF
:10013000BB010008BB010008BB010008BB010008AF
:10014000BB010008BB010008BB010008BB0100089F
:10015000BB010008BB010008BB010008BB0100088F
:10016000BB010008BB010008BB010008BB0100087F
:10017000BB010008BB010008BB0100080000000033
:10018000BB010008BB010008DFF810D000F0F6F951
:1001900000480047B5160008AFF300807004002047
:1001A0000648804706480047FEE7FEE7FEE7FEE711
:1001B000FEE7FEE7FEE7FEE7FEE7FEE73113000895
:1001C000890100082DE9F05F0546002092469B4614
:1001D00088460646814640241BE02846414647465D
:1001E000224600F05EF953465A46C01A914110D398
:1001F00011461846224600F045F92D1A67EB010812
:100200004F4622460120002100F03CF917EB00097F
:100210004E41201EA4F10104DFDC484631462A4647
:100220004346BDE8F09FD2B201E000F8012B491E21
:10023000FBD270470022F6E710B513460A46044683
:100240001946FFF7F0FF204610BD2DE9FE4F81EA69
:10025000030404F0004421F0004100944FF0000B2F
:1002600023F0004350EA01045ED052EA03045BD05D
:10027000C3F30A54C1F30A552C44A4F2F334019495
:10028000A0FB0254C1F3130141F48011C3F3130323
:1002900043F4801301FB024400FB034E840A970AD7
:1002A00044EA815447EA8357A4FB076802958D0A04
:1002B00005FB07854FEA932C04FB0C542705029D90
:1002C0004FEA065847EA1637B5EB08056EEB070C00
:1002D000870E920E47EA811742EA8312A7FB0201BA
:1002E000B6EB0B0164EB00042B0D43EA0C335E18F4
:1002F00044EB1C50DA465146E7FB0201C5F31304F8
:100300004FEA0B3343EA14534FEA0432019C43EAA9
:100310000603A4F10C040294009CCDE900B400F0A3
:10032000DFF803B0BDE8F08F00200146F9E72DE9C2
:10033000F04D81EA030404F0004B21F0004514461F
:100340004FF0000A23F0004150EA050220D054EAA1
:1003500001021DD0C5F30A570246C5F31303C1F3CA
:100360001300C1F30A5640F4801543F48013A7EB41
:100370000608101BD64608F2FD3873EB050002D3C1
:1003800008F1010801E092185B41B8F1000F03DAAF
:1003900000200146BDE8F08D00204FF48011064694
:1003A00084460EE0171B73EB050705D3121B63EBA6
:1003B000050306434CEA010C49084FEA3000921845
:1003C0005B4150EA0107EDD152EA030012D082EA04
:1003D000040083EA0501084305D0101BAB4106D297
:1003E0000122002306E000224FF0004302E06FF0FC
:1003F000010253101AEB06004CEB085110EB0A00F7
:1004000041EB0B01BDE8F04D00F05BB80EB540F2DA
:10041000334102910021CDE900110A460B4600F05C
:100420005FF803B000BDC1F30A5210B5C1F3130168
:1004300040F2FF3341F480119A4201DA002010BDEE
:1004400040F233439A42A2F2334203DC524200F0BC
:1004500028F810BD904010BD30B50B460146002075
:100460002022012409E021FA02F59D4205D303FA76
:1004700002F5491B04FA02F52844151EA2F10102F7
:10048000F1DC30BD202A04DB203A00FA02F1002022
:1004900070479140C2F1200320FA03F319439040C2
:1004A0007047202A04DB203A21FA02F0002170472D
:1004B00021FA02F3D040C2F12002914008431946CC
:1004C000704710B5141E73F1000408DA401C41F1A6
:1004D000000192185B411A4301D120F0010010BDC8
:1004E0002DE9F04D92469B4611B1B1FA81F202E03E
:1004F000B0FA80F220329046FFF7C4FF04460F4660
:1005000040EA0A0041EA0B0153465A46084313D019
:10051000114653EA010019D0C8F140025046FFF7D6
:10052000C0FF05460E46504659464246FFF7AAFF11
:10053000084305D0012004E020463946BDE8F08D8F
:100540000020054346EAE0762C4337430A986305CA
:10055000E40AA0EB08000022FD0A44EA47540A30EE
:1005600002D500200146E9E7010510196941DDE9DE
:10057000084500196941BDE8F04DA2E7064C074D5A
:1005800006E0E06840F0010394E807009847103463
:10059000AC42F6D3FFF7FCFD281700084817000807
:1005A0007047FEE7704772B6FEE7704770B50446C5
:1005B00000F00AF90546601C02D0044800780444A3
:1005C00000F002F9401BA042FAD370BD00000020E9
:1005D0002DE9F84FDFF8B8A1002201250AF1040B3C
:1005E00003264FF00F090BF1040E00BF0B6805FA4C
:1005F00002F42340A3426FD10F7907F00307012FC4
:1006000001D0022F16D187684FEA420806FA08FC8B
:1006100027EA0C07D1F80CC00CFA08FC4CEA070CCE
:10062000C0F808C04768A7430C79C4F3001494408D
:100630003C4344600C79E443A4070AD0C4684FEA01
:10064000420C06FA0CF7BC438F6807FA0CF72743F5
:10065000C7600C7904F00304022C12D1D40800EB1B
:10066000840CDCF820405707FF0E09FA07F824EA4B
:100670000804D1F8108008FA07F848EA0408CCF812
:10068000208004684FEA420C06FA0CF7BC430F794D
:1006900007F0030707FA0CF7274307604C68E400EC
:1006A00070D53C4C276847F480472760246822F0C7
:1006B000030704F480440094374C07EB040CDCF887
:1006C000084897074FEA177809FA08F7BC43334FF1
:1006D000B84202D1002724E054E0314FB84201D1A2
:1006E00001271EE02F4FB84201D1022719E02E4FFB
:1006F000B84201D1032714E02C4FB84201D104279E
:100700000FE02B4FB84201D105270AE0294FB8422C
:1007100001D1062705E0284FB84201D1072700E0A4
:10072000082707FA08F72743CCF80878DAF80040DA
:100730005746D1F804C09C435FEACC3C00D51C432B
:100740003C60DBF800405F46D1F804C09C435FEAA0
:100750008C3C00D51C433C60DEF800407746D1F865
:1007600004C09C435FEACC2C00D51C433C60084F7E
:100770000C373C68D1F804C09C435FEA8C2C00D550
:100780001C433C60521C102AFFF430AFBDE8F88FC8
:10079000003C01404438024000300140000002406B
:1007A0000004024000080240000C02400010024019
:1007B0000014024000180240001C02400AB181618E
:1007C00070470904FBE7000001488068704700009B
:1007D000000000200248816802781144816070475F
:1007E000000000200B4810B5016841F40071016061
:1007F000016841F480610160016841F48071016029
:10080000032000F061F8002000F006F800F024F862
:10081000002010BD003C024070B50D4D04464FF461
:100820007A712878B1FBF0F00A490968B1FBF0F061
:1008300000F0FCFA48B9102C07D200222146501EC5
:1008400000F022F800206C6070BD012070BD000037
:10085000000000200C0000200A4808B5016841F49F
:1008600080410160006800F4804000900548001F4E
:10087000016841F080510160006800F080500090F4
:1008800008BD000044380240F0B40E4B1B680C4613
:10089000C3F30223C3F10705042D00D90425191D54
:1008A000072901D2002300E0DB1E012606FA05F12C
:1008B000491E214099409E40761E16403143F0BCAF
:1008C00000F008BE0CED00E0064900F007020868E1
:1008D0004FF6FF03184040EA0220034A1043086025
:1008E000704700000CED00E00000FA052DE9F0472C
:1008F0000E46050065D0DFF81481D8F80000F7B285
:1009000000F00700B04207D288F80070D8F8000065
:1009100000F00700B04254D128683D4C810712D541
:10092000400703D5206840F4E05020602878000795
:1009300003D5206840F4604020602068A96820F05A
:10094000F000084320602878C0072DD0304968683F
:100950000839012812D0022813D0032811D00968C1
:10096000890700292DDA216821F003010143216064
:10097000FFF72AFF814641F2883A0EE009688903B1
:10098000EFE709688901ECE7FFF71EFFA0EB09011B
:10099000514502D90320BDE8F0872068696800F05E
:1009A0000C00B0EB810FEFD1D8F80010404601F0F9
:1009B0000701B14207D90770006800F00700B04294
:1009C00001D00120E7E72878400705D52068E968CD
:1009D00020F4E050084320602878000706D52068FE
:1009E000296920F4604040EAC100206000F038F836
:1009F0002168084AC1F30311515CC84006490860E8
:100A000006480068FFF708FF0020C4E7003C0240EA
:100A100008380240101700080C00002004000020D5
:100A20000448054900680968044AC1F38221515C01
:100A3000C84070470C00002008380240201700080A
:100A40000448054900680968044AC1F34231515C11
:100A5000C84070470C0000200838024020170008EA
:100A6000154810B5006810F00C02144813D041105E
:100A7000042A0FD0082A0ED10F4C241F22682368A5
:100A800002F03F025B0207D52068C0F38810A0FB8C
:100A9000010106E0084610BD2168C1F38811A1FBE1
:100AA00000010023FFF78EFB2168C1F30141491CBF
:100AB0004900B0FBF1F010BD083802400024F400FA
:100AC0002DE9F84F04006ED02078DFF84C93C00772
:100AD000A9F104054AD009F104000168C1F38101BC
:100AE000012908D00068C0F3810002280AD1D9F892
:100AF0000000400206D52868800337D560680028CA
:100B0000E1D033E06068B0F5803F10D0B0F5A02FA1
:100B1000286810D020F480302860286820F48020D5
:100B200028606068A8B1FFF74FFE06460DE0286810
:100B300040F48030F4E740F480202860F7E700BFFD
:100B4000FFF742FE801B642873D828688003F7D51E
:100B50000CE0FFF739FE064605E000BFFFF734FE64
:100B6000801B6428F0D828688003F7D42078DFF849
:100B7000AC8280074FF0000A3ED5A748001D0168EF
:100B800011F00C0F08D00068C0F3810002280BD1CF
:100B9000D9F80000400207D42868800716D5E0681D
:100BA000012800D112E033E1E068B8B10120C8F8B3
:100BB0000000FFF709FE064605E000BFFFF704FE50
:100BC000801B0228C0D828688007F7D528682169CB
:100BD00020F0F80040EAC10028600DE0C8F800A04D
:100BE000FFF7F2FD064604E0FFF7EEFD801B02284A
:100BF0001FD828688007F7D42078000722D5864FB1
:100C000087486169703771B101210160FFF7DCFD30
:100C1000064604E0FFF7D8FD801B022809D8386893
:100C20008007F7D50EE0C0F800A0FFF7CDFD06461F
:100C300005E082E0FFF7C8FD801B02287DD83868F8
:100C40008007F7D42078400768D5DFF8CCB10027BB
:100C50000BF13C0BDBF80000C0000BD4DBF80010FC
:100C600041F08051CBF80010DBF80000012700F0C4
:100C7000805000906B4E3068C00510D4306840F44E
:100C800080703060FFF7A0FD009005E0FFF79CFD4D
:100C90000099401A022850D83068C005F6D55E4E3B
:100CA000A0686C3601280FD00528306810D020F0DD
:100CB00001003060306820F004003060A068B8B1F6
:100CC000FFF782FD00900FE0306840F00100F4E78C
:100CD00040F004003060F7E7FFF776FD0099411A15
:100CE00041F28830814266D830688007F4D50EE042
:100CF000FFF76AFD009007E0FFF766FD0099411AD3
:100D000041F28830814256D830688007F4D42FB140
:100D1000DBF8001021F08051CBF80010A069C8B3B7
:100D20003D49091D0968C1F3810102294AD0022801
:100D3000504607D0C8F8600000E03CE0FFF744FDF3
:100D400004463BE04746C8F86000FFF73DFD064615
:100D500005E000BFFFF738FD801B02282BD828686C
:100D60008001F7D4D4E907010843A16A2E4A490853
:100D700002EB0141626A41EA8211084394F82C10A7
:100D800040EA0161C9F8001001203866FFF71CFD38
:100D9000044606E03EE000BFFFF716FD001B0228F8
:100DA00009D828688001F7D534E000BFFFF70CFDB3
:100DB000001B022802D90320BDE8F88F28688001B3
:100DC000F4D427E00128F7D0D9F80000E26900F454
:100DD000800191421CD1226A00F03F01914217D15B
:100DE00047F6C071626A0140B1EB821F10D1A26A5E
:100DF0004FF0FF3300F4403103EB5202B1EB024FEE
:100E000006D194F82C1000F07060B0EB016F01D0A7
:100E10000120D1E70020CFE704380240000047421C
:100E2000800E4742007000400000FFFF10B5401EDA
:100E3000B0F1807F01D3012010BD4FF0E02460614C
:100E40000F21601700F046FB0020A0610720206101
:100E5000002010BD70B5040004D094F83D000025BA
:100E600010B106E0012070BD84F83C50204600F02F
:100E700023F8242084F83D002068C16821F4005143
:100E8000C160204600F05CFA2068016921F49041BD
:100E900001612068416921F02A0141612068C1682F
:100EA00041F40051C1602564202084F83D0084F89D
:100EB0003E00002070BD000010B586B0044614212D
:100EC0006846FFF7B7F914492068884221D11348D2
:100ED0000021026842F010020260006800F0100079
:100EE00005900E481438026842F001020260006862
:100EF00000F0010005904FF4C06000900220CDE9A1
:100F00000101032003900720049069460448FFF77D
:100F10005FFB06B010BD00000010014044380240E5
:100F2000000002402DE9F843044690F83D001F46BA
:100F300016460D4620284CD1C5B1BEB194F83C00F0
:100F4000012846D0012084F83C004FF00008C4F886
:100F50004080212084F83D00FFF736FCA6848146BE
:100F6000E684A068B0F5805F03D004E00120BDE80E
:100F7000F883206928B12E465FF0000584F83C8094
:100F80000EE00026FAE78021204600F05FFAA0B9C3
:100F9000AEB116F8010B21684860E08C401EE08479
:100FA000E08C4B464FF0000200970028EBD14FF049
:100FB0004001204600F04AFA30B10320D7E735F867
:100FC000020BC0F30800E6E7202084F83D00002073
:100FD000CDE70220CBE7FEE7094808B5016841F0FC
:100FE00080010160016801F080010091016841F019
:100FF00001010160006800F00100009008BD0000E0
:10100000303802400C4810B50A4901604FF4E13114
:101010004160002181600C22C160C0E9041281613D
:10102000C161FFF717FF002803D0BDE81040FFF7AC
:10103000BABA10BD0010014028000020FEE7FEE70C
:1010400070B501212DED028B084600F0E3F8022077
:1010500000F076F80546032000F072F804460420FC
:1010600000F06EF8052000F06BF8062000F068F83C
:101070000021012000F0CEF82846FFF7C7F941EC27
:10108000180B2046FFF7C2F99FED091B53EC112BFB
:10109000FFF7DBF853EC182BFFF749F9FFF7C3F91B
:1010A000BDEC028B0146BDE8704003A000F002BA1F
:1010B000000000000080764025640A00704700F0C0
:1010C00003B8FFF7BDBF000070B51B4886B0002510
:1010D000016841F0020101600068032400F0020091
:1010E00005904FF4707000900120CDE90204134E7A
:1010F000019069463046FFF76BFA2020CDE90005E4
:10110000694603943046FFF763FA012240213046D6
:10111000FFF754FB012280213046FFF74FFB0122ED
:1011200011023046FFF74AFB012251023046FFF719
:1011300045FB06B070BD000030380240000402409C
:1011400010B50446012000F08FFA204600F034F874
:10115000012000F089FABDE8104000F001B800005D
:101160002DE9F041124E00254FF400782A46414601
:101170003046FFF723FB0F4F00246800D7F81452C6
:101180000122054380213046FFF718FB0022802111
:101190003046FFF713FB641CE4B2202CEDD3012290
:1011A00041463046FFF70AFB2846BDE8F0810000C3
:1011B00000040240008040422DE9F041144E0546F3
:1011C0004FF48077002239463046FFF7F7FA0024C3
:1011D000280601D5012200E0002240213046FFF719
:1011E000EDFA012280213046FFF7E8FA6806050E85
:1011F000002280213046FFF7E1FA641CE4B2082C9B
:10120000E6D339463046BDE8F0410122FFF7D6BAB1
:101210000004024070B504460D46012000F024FA97
:101220002046FFF7C9FF012000F01EFA2846BDE85E
:10123000704000F001B800002DE9F041144E054661
:101240004FF40077002239463046FFF7B7FA002402
:10125000002D01DA012200E0002240213046FFF794
:10126000ADFA012280213046FFF7A8FA6D00002276
:1012700080213046FFF7A2FA641CE4B2202CE7D3A9
:1012800039463046BDE8F0410122FFF797BA000029
:10129000000402407047FFF79DBA000030B593B0DC
:1012A00030216846FEF7C6FF14210CA8FEF7C2FFE6
:1012B0001D480025016841F080510160006800F080
:1012C000805011901948016841F480410160006824
:1012D000022400F48040119001200090000401904D
:1012E0008001CDE9064008AA0420A82182E8130065
:1012F0000B906846FFF7E4FB08B172B6FEE70CA955
:101300000F2081E831004FF4A0500F904FF480502F
:10131000109005210CA8FFF7E9FA002801D072B659
:10132000FEE713B030BD00004038024000700040BE
:101330000248016841F470010160704788ED00E0E7
:1013400070B5044600680169E26821F44051114318
:1013500001612169A068E26908436169114308439A
:101360002168CA6849F20C639A430243CA60206844
:101370004169A26921F440711143416131492068FA
:10138000884202D03049884202D1FFF759FB01E080
:10139000FFF746FBE2690023192164253226B2F5E6
:1013A000004F626828D0A0FB0101930F9200FEF766
:1013B00009FF0146B0FBF5F06FF01802504301EB56
:1013C000800006EB0010B0FBF5F000F0F002B1FB7E
:1013D000F5F002EB0012B1FBF5F06FF01803584383
:1013E00001EB800006EB0010B0FBF5F000F00F0001
:1013F00021681044886070BDA0FB010192185B4118
:10140000FEF7E0FE0146B0FBF5F00201B1FBF5F09E
:101410006FF01803584301EB800006EBC000B0FBEF
:10142000F5F000F0F80002EB4002B1FBF5F0584394
:1014300001EB800006EBC000B0FBF5F000F0070008
:10144000D6E7000000100140001401402DE9F041F2
:10145000984617460E460446069D1DE0681C1BD0A4
:101460002DB1FFF7B1F9A0EB0800A84214D920680C
:10147000C16821F4D071C1602068416921F0010187
:101480004161202084F83D0084F83E00002084F86B
:101490003C000320BDE8F0812068006836EA0000C7
:1014A00004D00020B842D9D00020F3E70120F9E7AA
:1014B000FEE700000FB4054B10B503A9044A0298DB
:1014C00000F028F810BC5DF814FB00009D16000821
:1014D000180000200907090E002804DB00F1E020B5
:1014E00080F80014704700F00F0000F1E02080F851
:1014F000141D704702E008C8121F08C1002AFAD163
:1015000070477047002001E001C1121F002AFBD183
:10151000704700002DE9FF4F89B09B460446002527
:1015200006E025280BD05A460B999047641C6D1C89
:1015300020780028F5D10DB02846BDE8F08F0027AF
:10154000B8460122474900E0074314F8013F203B19
:1015500002FA03F00842F7D120782E2819D114F8A6
:10156000010F47F004072A280ED06FF02F022078D1
:10157000A0F1300109290CD808EB880102EB4101E8
:1015800000EB0108641CF2E70A98641C50F8048B15
:101590000A9020780028CED0642808D0692806D088
:1015A00075281ED05A460B9990476D1C58E00A9931
:1015B0004FF00A0901C90A91002802DA40422D21A0
:1015C00002E0390504D52B218DF82010012103E01C
:1015D000F90704D02021F7E78A4608AE0DE0002184
:1015E000FAE70A994FF00A0901C90A91F7E7494653
:1015F000FEF732FF303106F8011D0028F7D1ADEBC0
:10160000060000F12009780701D44FF00108C84511
:1016100002DDA8EB090000E000208046002706E07C
:1016200008A85A46C05D0B9990476D1C7F1C574512
:10163000F6DB04E030205A460B9990476D1CB8F158
:101640000001A8F10108F5DC05E016F8010B5A4687
:101650000B9990476D1CB9F10001A9F10109F4DC67
:10166000641C65E70928010070B54FF0E0240022F2
:1016700065690949A36909684843A1699942FCD091
:1016800002D2A3EB010302E0A5EB010633441A44A6
:101690000B468242F1D370BD1000002013B50A231F
:1016A000012269460248FFF73DFC00981CBD00007E
:1016B00028000020FFF796F8FFF7F0FDFFF78CFCFD
:1016C000FFF7A0FC0E480068804740F25711002049
:1016D000FFF7A0FD0B490120FFF79CFD48F2FC51EC
:1016E0000220FFF797FD08490320FFF793FD4FF411
:1016F000FA60FEF75BFF054C20688047FCE70000BE
:10170000140000207056340020BCBE001C000020D5
:1017100000000000000000000102030406070809A1
:101720000000000001020304481700080000002028
:1017300028000000F414000870170008280000209A
:10174000480400000415000801000000100000001B
:10175000000000000024F40000000000BF1000089A
:1017600000000000C3100008AB050008A105000838
:040000050800018965
:00000001FF
